:020000040800F2
:1080000060080020DD810008F7940008BF93000895
:10801000F59400080D830008F7990008000000009F
:10802000000000000000000000000000FB940008B9
:108030000F83000800000000F9940008FD94000878
:10804000F7810008F7810008F7810008F781000830
:10805000F7810008F7810008F7810008F781000820
:10806000F7810008F7810008F7810008F781000810
:10807000F7810008F7810008F7810008F781000800
:10808000F7810008F7810008F7810008F7810008F0
:10809000F7810008F7810008F7810008F7810008E0
:1080A000F7810008F7810008F7810008F7810008D0
:1080B000F7810008F7810008F7810008F7810008C0
:1080C000F7810008F7810008F7810008F7810008B0
:1080D000F7810008F7810008F7810008F7810008A0
:1080E00011830008F7810008F7810008F781000874
:1080F000F7810008F7810008F7810008F781000880
:10810000F7810008F7810008F7810008F78100086F
:10811000F7810008F7810008F7810008F78100085F
:10812000F7810008F7810008F7810008F78100084F
:10813000F78100080000000000000000F78100083F
:10814000F7810008F7810008F7810008F78100082F
:10815000F7810008F7810008F7810008F78100081F
:10816000F7810008F7810008F7810008F78100080F
:10817000F7810008F7810008F7810008000000007F
:1081800000000000F781000800000000000000006F
:10819000F78100080000000000000000F7810008DF
:1081A000000000000000000000000000F78100084F
:1081B000F7810008F7810008F7810008F7810008BF
:1081C000F7810008DFF810D000F08EF80048004773
:1081D000399A0008AFF30080600800200648804705
:1081E00006480047FEE7FEE7FEE7FEE7FEE7FEE79C
:1081F000FEE7FEE7FEE7FEE7B5950008C58100084B
:108200002DE9F05F0546002092469B4688460646CB
:10821000814640241BE0284641464746224600F05E
:1082200053F853465A46C01A914110D31146184686
:10823000224600F03AF82D1A67EB01084F46224615
:108240000120002100F031F817EB00094E41201EFB
:10825000A4F10104DFDC484631462A464346BDE826
:10826000F09F40EA01039B0703D009E008C9121FF1
:1082700008C0042AFAD203E011F8013B00F8013BE0
:10828000521EF9D27047D2B201E000F8012B491E0C
:10829000FBD270470022F6E710B513460A460446A3
:1082A0001946FFF7F0FF204610BD202A04DB203AD4
:1082B00000FA02F1002070479140C2F1200320FA39
:1082C00003F3194390407047202A04DB203A21FA37
:1082D00002F00021704721FA02F3D040C2F12002DF
:1082E0009140084319467047064C074D06E0E06888
:1082F00040F0010394E8070098471034AC42F6D3ED
:10830000FFF764FFE49A0008049B0008FEE770474B
:1083100010B5094C01210948227800F01FF9207896
:1083200038B100202070BDE810404FF4005000F03C
:108330001BB80120F6E70000000000200004024006
:1083400070B5044600F010F90546601C02D00448E0
:108350000078044400F008F9401BA042FAD370BD35
:108360000400002070470000044910B50A6802426A
:1083700002D00860FFF7F6FF10BD0000143C01407A
:108380002DE9F84FDFF8ACA1002201240AF1040B1B
:1083900003254FF00F090BF1040E00BF0B6804FA20
:1083A00002F63340B34272D10F7907F00307012F71
:1083B00001D0022F16D187684FEA420805FA08FC5F
:1083C00027EA0C07D1F80CC00CFA08FC4CEA070CA1
:1083D000C0F808C04768B7430E79C6F30016964048
:1083E0003E4346600E79F643B6070AD0C6684FEAA8
:1083F000420C05FA0CF7BE438F6807FA0CF73743B7
:10840000C7600E7906F00306022E10D1D60800EBE5
:108410008608D8F8206057074FEAD76C09FA0CF79E
:10842000BE430F6907FA0CF73743C8F82070066897
:108430004FEA420C05FA0CF7BE430F7907F0030729
:1084400007FA0CF7374307604E68F6006BD53A4ED3
:10845000376847F480473760366822F0030706F430
:1084600080460096354E07EB060CDCF80868970747
:108470004FEA177809FA08F7BE43314FB84201D1E5
:1084800000271FE02F4FB84202D101271AE04AE02F
:108490002D4FB84201D1022714E02C4FB84201D130
:1084A00003270FE02A4FB84201D104270AE0294FE1
:1084B000B84201D1052705E0274FB84201D1062770
:1084C00000E0072707FA08F73743CCF80878DAF80E
:1084D00000605746D1F804C09E435FEACC3C00D50B
:1084E0001E433E60DBF800605F46D1F804C09E4347
:1084F0005FEA8C3C00D51E433E60DEF800607746A4
:10850000D1F804C09E435FEACC2C00D51E433E60E8
:10851000084F0C373E68D1F804C09E435FEA8C2CAC
:1085200000D51E433E60521C102AFFF437AFBDE851
:10853000F88F0000003C0140443802400030014008
:10854000000002400004024000080240000C02400B
:108550000010024000140240001802400AB181617C
:1085600070470904FBE7000001488068704700007D
:10857000040000200248816802781144816070473D
:10858000040000200B4810B5016841F4007101603F
:10859000016841F480610160016841F4807101600B
:1085A000032000F06FF8002000F006F800F024F837
:1085B000002010BD003C024070B50D4D04464FF444
:1085C0007A712878B1FBF0F00A490968B1FBF0F044
:1085D00000F020FE48B9102C07D200222146501E80
:1085E00000F030F800206C6070BD012070BD00000C
:1085F00004000020100000200A4808B5016841F47A
:1086000080410160006800F4804000900548001F30
:10861000016841F080510160006800F080500090D6
:1086200008BD000044380240002809DB00F01F02AA
:10863000012191404009800000F1E020C0F80011C4
:1086400070470000F0B40E4B1B680C46C3F30223C6
:10865000C3F10705042D00D90425191D072901D2EE
:10866000002300E0DB1E012606FA05F1491E214029
:1086700099409E40761E16403143F0BC01F0BCB9D3
:108680000CED00E0064900F0070208684FF6FF0312
:10869000184040EA0220034A104308607047000077
:1086A0000CED00E00000FA0501220168C0F8FC238F
:1086B000002280F8F423886940F000608861486DEA
:1086C000024A104348650020704700000300001074
:1086D0002DE9F0418AB0040005D094F8BD03266866
:1086E000002520B108E001200AB0BDE8F08184F83F
:1086F000BC53204600F064F8032084F8BD03F06BFF
:10870000C00500D42561206801F036F904F110019C
:10871000282288466846FFF7A4FD94E80F0001F080
:108720000FF80226C8BB0021206801F04DF9002097
:1087300001270EE0C0EBC00104EB810181F83D7020
:1087400001F83C0FC880CD708D60CD60401CC0B278
:108750004D6161688142EDD8002011E0C0EBC0019D
:1087600004EB810181F8FD5181F8FC0181F8FF5192
:10877000C1F80452C1F80852401CC0B2C1F81052EE
:1087800061688142EAD8282241466846FFF769FDC0
:1087900094E80F0001F038F810B184F8BD63A2E747
:1087A00084F8385084F8BD73606A012802D12046ED
:1087B000FFF77AFF206801F019F8002094E7000025
:1087C00030B587B0044614216846FFF763FD206882
:1087D000B0F1A04F30D119480024016841F00101E7
:1087E00001600068164D00F0010005904FF4E8505C
:1087F00000900220CDE90104032003900A20049098
:1088000069462846FFF7BCFD6815CDE900046946B6
:1088100028460294FFF7B4FD0848001D016841F0A6
:108820008001016005481430016841F48041016015
:10883000006800F48040059007B030BD3038024039
:10884000000002402DE9F84F044600260078F84D5C
:108850003746C00708D02868A16B20F0C0600843E5
:108860002860A06B00B901262078800708D5286809
:10887000E16B20F0C05008432860E06B00B901268E
:10888000207840070ED52868216B20F4401008435B
:108890002860206BB0F5801F01D010B102E00126E6
:1088A00000E00127207800070ED52868616B20F4CE
:1088B000400008432860606BB0F5800F01D010B114
:1088C00002E0012600E0012720784FF0000A800630
:1088D0004FF0010B63D5D6484C38016841F0805108
:1088E00001600068DFF84C9300F080500090D9F8E8
:1088F000001041F48071C9F80010FFF735FE804682
:1089000006E000BFFFF730FEA0EB080002286FD89A
:10891000D9F80000C005F5D5DFF81483A8F11C08CC
:10892000D8F8000010F4407024D0B4F8401001F4DE
:10893000407181421ED0D8F80010BF4A21F4407126
:10894000C2F800B0C2F800A0C8F80010D8F80000C3
:10895000C0070FD0FFF708FE814607E0FFF704FECF
:10896000A0EB090141F288308142D0D8D8F800004C
:108970008007F3D5216CAE48C1F301228438032A65
:1089800037D0016821F4F811C0F80010D8F80010B1
:10899000B4F84020C2F30B021143C8F8001020784D
:1089A000C00604D5A54894F85810C0F8E011207806
:1089B0000106A34805D50168E26C21F4400111438A
:1089C00001602178490605D50168A26C21F080611B
:1089D000114301602188C90514D50168626D21F039
:1089E000006111430160616DB1F1006F09D009E0D0
:1089F0001DE10268934B22F4F81219400A43026009
:108A0000C4E701272188890505D50168626C21F03A
:108A10008051114301602188DFF82C92490509D566
:108A20000168226D21F0005111430160206DB0F109
:108A3000005F04D01EB92068B0F5006F7ED1834975
:108A4000C1F868A0FFF790FD794E80468C3E05E0A6
:108A5000FFF78AFDA0EB0800022886D830680001E5
:108A6000F6D421687A48CA0701D0A26B1AB18907E7
:108A700017D5E16BA9B901680268C1F30141491C2E
:108A8000D4E9013C43EA8C1321F0004CC2F30362A9
:108A900009EB0C4141EA02610B43217D43EA01717C
:108AA000016021684A0703D5226BB2F5801F05D00B
:108AB000090721D5616BB1F5800F1DD101680268EE
:108AC000C1F30141491CD4E9013C43EA8C1321F074
:108AD000004C09EB0C4194F810C0C2F3027241EA59
:108AE0000C610B4343EA027101602968A26A21F01C
:108AF0001F01521E11432960218849051AD5216D95
:108B0000B1F1005F16D101680268C1F30141491C4F
:108B1000D4E9013C43EA8C13D4F80CC0C2F30272CE
:108B20004FEA5C0809EB084C4CEA41610B4343EA0D
:108B3000027101602188090511D500E01FE0D4E928
:108B4000011241EA8211E268530809EB0342237CD7
:108B500042EA03621143227D41EA027101603B490E
:108B6000C1F868B0FFF700FD804605E0FFF7FCFCA8
:108B7000A0EB0800022874D830680001F6D5EFB3E6
:108B8000DFF8C880C8F870A0FFF7EEFC304E07464B
:108B9000843E04E0FFF7E8FCC01B022861D830687F
:108BA000C0438000F6D521682A484A0701D5226BC8
:108BB0001AB109071DD5616BD9B90168D4E906233B
:108BC000C1F30141491C42EA831221F0004309EB41
:108BD000034194F8243041EA03610A4302602968A2
:108BE000E26A6FF0FF0321F4F85103EB0222114314
:108BF00029602188C90514D5616D00E038E0B1F124
:108C0000006F0ED10168D4E9062342EA8312236A79
:108C1000C1F303615C0809EB044343EA01610A43C1
:108C20000260C8F870B0FFF79FFC04461CE018E033
:108C30008C38024000700040400E4742001047420E
:108C400094380240FFFCFF0F0000FFFF0000474286
:108C50008438024088380240FFF786FC001B022857
:108C600002D90320BDE8F88F3068C0438000F3D4F8
:108C70000020F7E72DE9F0470E46050065D0DFF844
:108C80001481D8F80000F7B200F00F00B04207D20C
:108C900088F80070D8F8000000F00F00B04254D1FE
:108CA00028683D4C810712D5400703D5206840F461
:108CB000E05020602878000703D5206840F4604029
:108CC00020602068A96820F0F00008432060287820
:108CD000C0072DD0304968680839012812D0022811
:108CE00013D0032811D00968890700292DDA2168DB
:108CF00021F0030101432160FFF736FC814641F278
:108D0000883A0EE009688903EFE709688901ECE712
:108D1000FFF72AFCA0EB0901514502D90320BDE869
:108D2000F0872068696800F00C00B0EB810FEFD18C
:108D3000D8F80010404601F00F01B14207D9077082
:108D4000006800F00F00B04201D00120E7E728786A
:108D5000400705D52068E96820F4E050084320600A
:108D60002878000706D52068296920F4604040EA89
:108D7000C100206000F038F82168084AC1F30311EF
:108D8000515CC8400649086006480068FFF714FCBB
:108D90000020C4E7003C024008380240CC9A00089A
:108DA00010000020080000200448054900680968F8
:108DB000044AC1F38221515CC84070471000002072
:108DC00008380240DC9A0008044805490068096830
:108DD000044AC1F34231515CC84070471000002082
:108DE00008380240DC9A0008224810B5006810F0EC
:108DF0000C02214815D04110042A11D01D4C241F0B
:108E0000082A0FD00C2A0CD12268236802F03F02F6
:108E10005B0221D52068C0F38810A0FB010120E08F
:108E2000084610BD2268236802F03F025B0205D5A8
:108E30002068C0F38810A0FB010104E02168C1F3A1
:108E40008811A1FB00010023FFF7DAF92168C1F3C3
:108E50000141491C49000AE02168C1F38811A1FBC6
:108E600000010023FFF7CCF92168C1F30271B0FBC8
:108E7000F1F010BD083802400024F4002DE9F84F4D
:108E800004007DD0DFF878B32078ABF10407C00789
:108E9000A7F1040550D0DBF800105846C1F381015A
:108EA00001290FD00168C1F38101022902D139687B
:108EB000490207D40068C0F38100032809D138684B
:108EC000400206D52868800336D560680028D8D0CF
:108ED00032E06068B0F5803F10D0B0F5A02F286870
:108EE00010D020F480302860286820F4802028608A
:108EF0006068A0B1FFF738FB06460CE0286840F434
:108F00008030F4E740F480202860F7E7FFF72CFB7F
:108F1000801B642876D828688003F7D50CE0FFF71B
:108F200023FB064605E000BFFFF71EFB801B6428FD
:108F3000F0D828688003F7D42078DFF8C89280073B
:108F40004FF0000A44D5DBF80010584611F00C0F22
:108F50000FD00168C1F38101022902D139684902A9
:108F600007D50068C0F3810003280AD138684002A1
:108F700007D42868800715D5E068012800D111E0E2
:108F80003AE1E068B0B10120C9F80000FFF7ECFA5F
:108F9000064604E0FFF7E8FA801B0228BAD82868E2
:108FA0008007F7D52868216920F0F80040EAC10061
:108FB00028600DE0C9F800A0FFF7D6FA064604E0E5
:108FC000FFF7D2FA801B02281CD828688007F7D444
:108FD0002078000727D5DFF828828B48616908F1DF
:108FE0006C0881B101210160FFF7BEFA064604E07A
:108FF000FFF7BAFA801B022804D8D8F800008007CF
:10900000F6D510E089E0C0F800A0FFF7ADFA0646FB
:1090100005E000BFFFF7A8FA801B02287DD8D8F82A
:1090200000008007F6D42078400769D574484FF0D7
:10903000000838300068C0000BD47148383001682F
:1090400041F08051016000684FF0010800F080504D
:1090500000906E4E3068C00511D4306840F48070C6
:109060003060FFF781FA009006E000BFFFF77CFA5E
:109070000099401A022850D83068C005F6D5604ED5
:10908000A068683601280FD00528306810D020F07D
:1090900001003060306820F004003060A068B8B192
:1090A000FFF762FA00900FE0306840F00100F4E74B
:1090B00040F004003060F7E7FFF756FA0099411AD4
:1090C00041F28830814264D830688007F4D50EE0E0
:1090D000FFF74AFA009007E0FFF746FA0099411AB5
:1090E00041F28830814254D830688007F4D4B8F116
:1090F000000F05D042483830016821F080510160EE
:10910000A069A8B3DBF80010C1F38101022947D0A0
:109110000228C9F860A005D000E03AE0FFF724FA81
:10912000044639E0FFF720FA064604E0FFF71CFA90
:10913000801B02282DD828688001F7D4F4E90701A4
:109140000843E168324A490802EB0141A26841EA5A
:1091500082110843217C40EA0160217D40EA0170D0
:1091600038600120C9F86000FFF7FEF9044606E008
:1091700044E000BFFFF7F8F9001B022809D828686F
:109180008001F7D53AE000BFFFF7EEF9001B022897
:1091900002D90320BDE8F88F28688001F4D42DE0BF
:1091A0000128F7D03868E26900F48001914223D1A8
:1091B000226A00F03F0191421ED147F6C071626AF7
:1091C0000140B1EB821F17D1A26A4FF0FF3300F4C8
:1091D000403103EB5202B1EB024F0DD194F82C2039
:1091E00000F07061B1EB026F06D194F8301000F01E
:1091F000E040B0EB017F01D00120CBE70020C9E7C0
:109200000838024000004742800E4742007000408C
:109210000000FFFF10B5401EB0F1807F01D3012098
:1092200010BD4FF0E02460610F21601700F0E4FBF7
:109230000020A06107202061002010BD70B504004F
:1092400004D094F83D00002510B106E0012070BD67
:1092500084F83C50204600F023F8242084F83D0098
:109260002068C16821F40051C160204600F0B0F9C7
:109270002068016921F4904101612068416921F071
:109280002A0141612068C16841F40051C160256430
:10929000202084F83D0084F83E00002070BD0000CE
:1092A00010B586B0044614216846FEF7F3FF144952
:1092B0002068884221D113480021026842F48022AC
:1092C0000260006800F4802005900E4810380268A3
:1092D00042F008020260006800F0080005904FF4B8
:1092E000407000900220CDE9010103200390072087
:1092F000049069460448FFF743F806B010BD00002B
:109300000048004040380240000C02402DE9F8437C
:10931000044690F83D001F4616460D4620284CD1C5
:10932000C5B1BEB194F83C00012846D0012084F8B4
:109330003C004FF00008C4F84080212084F83D0034
:10934000FFF712F9A6848146E684A068B0F5805F35
:1093500003D004E00120BDE8F883206928B12E463F
:109360005FF0000584F83C800EE00026FAE78021DB
:10937000204600F0B3F9A0B9AEB116F8010B216890
:109380004860E08C401EE084E08C4B464FF00002C9
:1093900000970028EBD14FF04001204600F09EF9E5
:1093A00030B10320D7E735F8020BC0F30800E6E739
:1093B000202084F83D000020CDE70220CBE7FEE727
:1093C000F0B587B014216846FEF764FF36480024E4
:1093D000016841F004010160016801F00401059198
:1093E000016841F080010160016801F08001059190
:1093F000016841F002010160016801F0020105917C
:10940000016841F008010160016801F0080105915F
:10941000016841F040010160016801F040010591DF
:10942000016841F0010101600068204E00F0010078
:1094300044F281050590002229463046FFF78EF858
:109440001B4F002240213846FFF788F84FF40050A8
:1094500000901848CDE9010469461748FEF790FFCF
:1094600000950125CDE90154694630460394FEF785
:1094700087FF40200090CDE90154694638460394A7
:10948000FEF77EFF8020CDE900046946384602944D
:10949000FEF776FF002211462820FFF7D3F8282098
:1094A000FFF7C2F807B0F0BD3038024000040240B8
:1094B0000018024000001110000802400C4810B5CE
:1094C0004FF0A04101600621416002220021C0E965
:1094D000032182610122C0E907214162C0E90B2119
:1094E000FFF7F6F8002801D072B6FEE710BD0000C5
:1094F00058000020FEE7FEE770477047FFF73AB8D4
:1095000030B5ABB0342117A8FEF7C4FE142124A84F
:10951000FEF7C0FE5C216846FEF7BCFE234800252E
:10952000016841F080510160006800F0805029908E
:109530001F48016841F4404101600068022400F4C2
:1095400040402990012017904FF4A020189060050A
:10955000CDE91D4004201F90A820CDE9200407205C
:10956000CDE9220417A8FFF789FC08B172B6FEE71F
:1095700024A90F2081E831004FF4A05027904FF428
:1095800080502890052124A8FFF774FB08B172B61B
:10959000FEE74FF48070009015956846FFF752F98A
:1095A000002801D072B6FEE72BB030BD4038024033
:1095B000007000400448016841F4700101600249F4
:1095C000024880390860704788ED00E0008000089C
:1095D00070B5044600680169E26821F44051114306
:1095E00001612169A068E269084361691143084388
:1095F0002168CA6849F20C639A430243CA60206832
:109600004169A26921F440711143416131492068E7
:10961000884202D03049884202D1FFF7D5FB01E0F1
:10962000FFF7C2FBE2690023192164253226B2F557
:10963000004F626828D0A0FB0101930F9200FEF753
:10964000DFFD0146B0FBF5F06FF01802504301EB6F
:10965000800006EB0010B0FBF5F000F0F002B1FB6B
:10966000F5F002EB0012B1FBF5F06FF01803584370
:1096700001EB800006EB0010B0FBF5F000F00F00EE
:1096800021681044886070BDA0FB010192185B4105
:10969000FEF7B6FD0146B0FBF5F00201B1FBF5F0B7
:1096A0006FF01803584301EB800006EBC000B0FBDD
:1096B000F5F000F0F80002EB4002B1FBF5F0584382
:1096C00001EB800006EBC000B0FBF5F000F00700F6
:1096D000D6E7000000100140001401402DE9F041E0
:1096E000984617460E460446069D1DE0681C1BD092
:1096F0002DB1FEF739FFA0EB0800A84214D920686D
:10970000C16821F4D071C1602068416921F0010174
:109710004161202084F83D0084F83E00002084F858
:109720003C000320BDE8F0812068006836EA0000B4
:1097300004D00020B842D9D00020F3E70120F9E797
:1097400070B5044606990A9E049D0D98012916D00D
:10975000E06840F04000E060204600F02BF8A16B8C
:109760001EB321F48031A163012D07D1A16841F01E
:109770000601A160A16841F02001A16070BDA16B4C
:1097800021F48031A163E168094A1140E160E16898
:1097900021F44011E160012803D1E06840F4801019
:1097A000E060204600F006F8DEE741F48031DAE7B9
:1097B000BFFFBDFF01220C4902E0521C8A420BD8B8
:1097C0000369002BF9DA026942F001020261012209
:1097D00004E0521C8A4201D9032070470369DB0769
:1097E000F7D1002070470000400D0300D0F8001EA4
:1097F00021F00301C0F8001ED0F8041841F0020166
:10980000C0F80418002070472DE9F04F00250E46DF
:109810000446DDF82CC0DDF824B0109F2846294608
:1098200004EB8002C2F80411401C0F28F8D3204634
:10983000A7B1806B40F40012A26308468846C4F8C2
:10984000000ED4F800182046C4F80018BCF1010F2F
:1098500017D0D0F8001841F0030117E0D0F8040841
:1098600040F00202C4F80428A06B20F40012A263A6
:10987000206840F040022260206840F080022260B0
:10988000DBE7D0F800180BB141F00101C0F8001877
:10989000102100F087F800B10125204600F072F891
:1098A00000B101254046C4F81088C4F81488C4F8F3
:1098B0001C8800214FF000694FF0904A4FF67F332B
:1098C00015E000BF04EB4112D2F800C9BCF1000F53
:1098D00006DA11B1C2F800A904E0C4F8009901E069
:1098E000C2F80009C2F81009C2F80839491C8E42B2
:1098F000E8D8002115E000BF04EB4112D2F800CBFC
:10990000BCF1000F06DA11B1C2F800AB04E0C4F8F4
:10991000009B01E0C2F8000BC2F8100BC2F8083B34
:10992000491C8E42E8D8D4F8101821F48072C4F88B
:109930001028A0616FF080406061BBF1000F03D17F
:10994000A06940F01000A061A06909490843A06126
:109950000C9818B1A06940F00800A061012F03D154
:10996000A06904490843A0612846BDE8F08F0000C3
:1099700000383C8004000040816821F001018160D2
:1099800000207047002110220261054A491C9142C3
:1099900001D9032070470369DB06F7D40020704724
:1099A000400D03000022202343EA81110161054993
:1099B000521C8A4201D90320704703699B06F7D4E1
:1099C00000207047400D030010B5C26822F0C0426D
:1099D000C260012902D029B1012010BDC16841F047
:1099E000005102E0C16841F08041C1603220FEF7C1
:1099F000A7FC002010BDFEE70907090E002804DBC4
:109A000000F1E02080F80014704700F00F0000F132
:109A1000E02080F8141D704702E008C8121F08C13A
:109A2000002AFAD170477047002001E001C1121FDF
:109A3000002AFBD1704700008AB0242218A1684692
:109A4000FEF70FFCFEF79EFDFFF75AFDFFF7B8FC8F
:109A50001D481C490C2201604FF4E1314160002196
:109A60008160C160C0E904128161C161FFF7E6FB5A
:109A700008B172B6FEE7FFF721FD4FF0FF34234631
:109A8000232269461048FFF741FCFEF76DFD00F503
:109A9000FA7500BFFEF768FDA842FBD9EFE70000AA
:109AA00075736572206170706C69636174696F6E43
:109AB0002E2E2E2E2E2E2E2E2E2E2E2E2E2E2E2EC6
:109AC0000D0A0000004800401400002000000000C3
:109AD000000000000102030406070809000000005E
:109AE00001020304049B0008000000201400000091
:109AF000189A0008189B0008140000204C08000069
:109B0000289A00080000000001000000100000007A
:089B1000000000000024F40035
:04000005080081C5A9
:00000001FF
