:020000040800F2
:1000000028050020DD0100082B1400080713000854
:1000100029140008730700083916000800000000C2
:100020000000000000000000000000002F14000885
:1000300075070008000000002D14000831140008A6
:10004000F7010008F7010008F7010008F7010008B0
:10005000F7010008F7010008F7010008F7010008A0
:10006000F7010008F7010008F7010008F701000890
:10007000F7010008F7010008F7010008F701000880
:10008000F7010008F7010008F7010008F701000870
:10009000F7010008F7010008F7010008F701000860
:1000A000F7010008F7010008F7010008F701000850
:1000B000F7010008F7010008F7010008F701000840
:1000C000F7010008F7010008F7010008F701000830
:1000D000F7010008F7010008F7010008F701000820
:1000E000F7010008F7010008F7010008F701000810
:1000F000F7010008F7010008F7010008F701000800
:10010000F7010008F7010008F7010008F7010008EF
:10011000F7010008F7010008F7010008F7010008DF
:10012000F7010008F7010008F7010008F7010008CF
:10013000F70100080000000000000000F7010008BF
:10014000F7010008F7010008F7010008F7010008AF
:10015000F7010008F7010008F7010008F70100089F
:10016000F7010008F7010008F7010008F70100088F
:10017000F7010008F7010008F7010008000000007F
:1001800000000000F701000800000000000000006F
:10019000F70100080000000000000000F70100085F
:1001A000000000000000000000000000F70100084F
:1001B000F7010008F7010008F7010008F70100083F
:1001C000F7010008DFF810D000F052FA00480047AD
:1001D000C1210008AFF300802805002006488047B1
:1001E00006480047FEE7FEE7FEE7FEE7FEE7FEE71C
:1001F000FEE7FEE7FEE7FEE7B9140008C5010008C8
:100200002DE9F05F0546002092469B46884606464B
:10021000814640241BE0284641464746224600F0DE
:100220005EF853465A46C01A914110D311461846FB
:10023000224600F045F82D1A67EB01084F4622468A
:100240000120002100F03CF817EB00094E41201E70
:10025000A4F10104DFDC484631462A464346BDE8A6
:10026000F09FD2B201E000F8012B491EFBD270478B
:100270000022F6E710B513460A4604461946FFF772
:10028000F0FF204610BD421C10F8011B0029FBD1D5
:10029000801A704730B50B46014600202022012409
:1002A00009E021FA02F59D4205D303FA02F5491B44
:1002B00004FA02F52844151EA2F10102F1DC30BD5A
:1002C000202A04DB203A00FA02F100207047914016
:1002D000C2F1200320FA03F3194390407047202A0B
:1002E00004DB203A21FA02F00021704721FA02F3E0
:1002F000D040C2F1200291400843194670472DE9D1
:10030000FE4F804681EA0300C00F0C46009021F0AA
:10031000004123F00045B8EB0200A94105D2404658
:10032000214690461C460B46024623F000401043EF
:1003300047D0270DC7F30A00C3F30A510290401AB1
:10034000019040286BDAC3F3130040F4801B00983F
:10035000924620B10023D2EB030A63EB0B0B01980A
:100360005946C0F140025046FFF7AAFF06460D4627
:1003700050465946019A00F08DF910EB0800614192
:10038000002487EA115284EAE7731A4340D0009AA6
:1003900062B3019A012A4FEA075215DC001B61EB98
:1003A00002014FF0004202EA0752CDE90042001C70
:1003B00041F5801132462B4600F08DF903B0BDE8BF
:1003C000F08F40462146F9E7001B61EB0201001C5B
:1003D00041F5801300185B412018A2F5001747EB88
:1003E000030140EAD570B6196D4111E06D084FEA7E
:1003F000360645EAC0754FEA0752001B61EB020161
:10040000001C41F5801149084FEA300000195141A4
:1004100032462B4603B0BDE8F04F00F04DB90098CE
:10042000012240000023D0EB020263EBE07300984E
:1004300021464FEAE074B8EB000061EB0401E9E704
:1004400083F000435BE781F0004158E72DE9FE4F60
:1004500081EA030404F0004421F0004100944FF0CD
:10046000000B23F0004350EA01045ED052EA03047B
:100470005BD0C3F30A54C1F30A552C44A4F2F334FD
:100480000194A0FB0254C1F3130141F48011C3F3A2
:10049000130343F4801301FB024400FB034E840A60
:1004A000970A44EA815447EA8357A4FB07680295F8
:1004B0008D0A05FB07854FEA932C04FB0C54270596
:1004C000029D4FEA065847EA1637B5EB08056EEB72
:1004D000070C870E920E47EA811742EA8312A7FBA8
:1004E0000201B6EB0B0164EB00042B0D43EA0C3365
:1004F0005E1844EB1C50DA465146E7FB0201C5F397
:1005000013044FEA0B3343EA14534FEA0432019CBD
:1005100043EA0603A4F10C040294009CCDE900B464
:1005200000F0D9F803B0BDE8F08F00200146F9E7EC
:100530002DE9F04D81EA030404F0004B21F0004561
:1005400014464FF0000A23F0004150EA050220D083
:1005500054EA01021DD0C5F30A570246C5F313033E
:10056000C1F31300C1F30A5640F4801543F480131D
:10057000A7EB0608101BD64608F2FD3873EB050002
:1005800002D308F1010801E092185B41B8F1000FB5
:1005900003DA00200146BDE8F08D00204FF4801101
:1005A000064684460EE0171B73EB050705D3121BA6
:1005B00063EB050306434CEA010C49084FEA30009F
:1005C00092185B4150EA0107EDD152EA030012D0C4
:1005D00082EA040083EA0501084305D0101BAB4101
:1005E00006D20122002306E000224FF0004302E081
:1005F0006FF0010253101AEB06004CEB085110EBA0
:100600000A0041EB0B01BDE8F04D00F055B8C1F315
:100610000A52C1F3130140F2FF3341F480119A42B0
:1006200002DA00200146704740F233439A42A2F2B8
:10063000334202DC5242FFF752BEFFF741BE0000D8
:1006400030B5041E71F1000404DB4FF00044404259
:1006500064EB0101141E73F1000405DB1C464FF02E
:100660000043524263EB0403994208BF904230BDFD
:10067000064C074D06E0E06840F0010394E80700EF
:1006800098471034AC42F6D3FFF7A0FD10230008C2
:1006900030230008202A06DBCB17203A41FA02F06B
:1006A00043EAE07306E041FA02F3D040C2F12002CF
:1006B000914008431946704710B5141E73F10004A9
:1006C00008DA401C41F1000192185B411A4301D144
:1006D00020F0010010BD2DE9F04D92469B4611B16E
:1006E000B1FA81F202E0B0FA80F220329046FFF7D0
:1006F000E7FD04460F4640EA0A0041EA0B01534673
:100700005A46084313D0114653EA010019D0C8F1E4
:1007100040025046FFF7E3FD05460E465046594657
:100720004246FFF7CDFD084305D0012004E02046F6
:100730003946BDE8F08D0020054346EAE0762C43BB
:1007400037430A986305E40AA0EB08000022FD0A7B
:1007500044EA47540A3002D500200146E9E7010582
:1007600010196941DDE9084500196941BDE8F04DFE
:10077000A2E7FEE77047000030B502234371002373
:1007800005E000BF056851F823402C605B1C9342D4
:10079000F8D30168096801224271084630BD10B5DE
:1007A000040002D0607910B106E0012010BD0020E5
:1007B0002071204600F004F801206071002010BD77
:1007C00008B500680649884208D10648016841F426
:1007D00080510160006800F48050009008BD000066
:1007E00000300240303802402DE9F84FDFF8ACA16C
:1007F000002201240AF1040B03254FF00F090BF12D
:10080000040E00BF0B6804FA02F63340B34272D103
:100810000F7907F00307012F01D0022F16D1876847
:100820004FEA420805FA08FC27EA0C07D1F80CC089
:100830000CFA08FC4CEA070CC0F808C04768B7433C
:100840000E79C6F3001696403E4346600E79F64395
:10085000B6070AD0C6684FEA420C05FA0CF7BE4349
:100860008F6807FA0CF73743C7600E7906F0030666
:10087000022E10D1D60800EB8608D8F82060570762
:100880004FEAD76C09FA0CF7BE430F6907FA0CF769
:100890003743C8F8207006684FEA420C05FA0CF797
:1008A000BE430F7907F0030707FA0CF737430760D9
:1008B0004E68F6006BD53A4E376847F4804737608C
:1008C000366822F0030706F480460096354E07EBA3
:1008D000060CDCF8086897074FEA177809FA08F75A
:1008E000BE43314FB84201D100271FE02F4FB8421D
:1008F00002D101271AE04AE02D4FB84201D1022768
:1009000014E02C4FB84201D103270FE02A4FB84220
:1009100001D104270AE0294FB84201D1052705E09B
:10092000274FB84201D1062700E0072707FA08F74A
:100930003743CCF80878DAF800605746D1F804C09D
:100940009E435FEACC3C00D51E433E60DBF800606E
:100950005F46D1F804C09E435FEA8C3C00D51E433D
:100960003E60DEF800607746D1F804C09E435FEA3F
:10097000CC2C00D51E433E60084F0C373E68D1F8A2
:1009800004C09E435FEA8C2C00D51E433E60521C7F
:10099000102AFFF437AFBDE8F88F0000003C01409B
:1009A0004438024000300140000002400004024090
:1009B00000080240000C02400010024000140240F7
:1009C000001802400069084000D0012070470AB1B9
:1009D000816170470904FBE70148806870470000A7
:1009E0000800002002488168027811448160704745
:1009F000080000200B4810B5016841F40071016047
:100A0000016841F480610160016841F48071016016
:100A1000032000F061F8002000F006F800F024F850
:100A2000002010BD003C024070B50D4D04464FF44F
:100A30007A712878B1FBF0F00A490968B1FBF0F04F
:100A400000F02CFB48B9102C07D200222146501E82
:100A500000F022F800206C6070BD012070BD000025
:100A600008000020140000200A4808B5016841F47D
:100A700080410160006800F4804000900548001F3C
:100A8000016841F080510160006800F080500090E2
:100A900008BD000044380240F0B40E4B1B680C4601
:100AA000C3F30223C3F10705042D00D90425191D42
:100AB000072901D2002300E0DB1E012606FA05F11A
:100AC000491E214099409E40761E16403143F0BC9D
:100AD00000F0C6BD0CED00E0064900F00702086812
:100AE0004FF6FF03184040EA0220034A1043086013
:100AF000704700000CED00E00000FA052DE9F0471A
:100B00000E46050065D0DFF81481D8F80000F7B272
:100B100000F00F00B04207D288F80070D8F800004B
:100B200000F00F00B04254D128683D4C810712D527
:100B3000400703D5206840F4E05020602878000783
:100B400003D5206840F4604020602068A96820F048
:100B5000F000084320602878C0072DD0304968682D
:100B60000839012812D0022813D0032811D00968AF
:100B7000890700292DDA216821F003010143216052
:100B8000FFF72AFF814641F2883A0EE0096889039F
:100B9000EFE709688901ECE7FFF71EFFA0EB090109
:100BA000514502D90320BDE8F0872068696800F04C
:100BB0000C00B0EB810FEFD1D8F80010404601F0E7
:100BC0000F01B14207D90770006800F00F00B04272
:100BD00001D00120E7E72878400705D52068E968BB
:100BE00020F4E050084320602878000706D52068EC
:100BF000296920F4604040EAC100206000F038F824
:100C00002168084AC1F30311515CC84006490860D5
:100C100006480068FFF708FF0020C4E7003C0240D8
:100C200008380240F8220008140000200C000020C0
:100C30000448054900680968044AC1F38221515CEF
:100C4000C8407047140000200838024008230008FC
:100C50000448054900680968044AC1F34231515CFF
:100C6000C8407047140000200838024008230008DC
:100C7000224810B5006810F00C02214815D0411030
:100C8000042A11D01D4C241F082A0FD00C2A0CD185
:100C90002268236802F03F025B0221D52068C0F37E
:100CA0008810A0FB010120E0084610BD22682368DF
:100CB00002F03F025B0205D52068C0F38810A0FB5C
:100CC000010104E02168C1F38811A1FB00010023A8
:100CD000FFF796FA2168C1F30141491C49000AE077
:100CE0002168C1F38811A1FB00010023FFF788FAF6
:100CF0002168C1F30271B0FBF1F010BD0838024069
:100D00000024F4002DE9F84F04007DD0DFF878B31B
:100D10002078ABF10407C007A7F1040550D0DBF839
:100D200000105846C1F3810101290FD00168C1F3B9
:100D30008101022902D13968490207D40068C0F351
:100D40008100032809D13868400206D5286880034D
:100D500036D560680028D8D032E06068B0F5803FB2
:100D600010D0B0F5A02F286810D020F48030286073
:100D7000286820F4802028606068A0B1FFF72CFE6E
:100D800006460CE0286840F48030F4E740F4802008
:100D90002860F7E7FFF720FE801B642876D82868D4
:100DA0008003F7D50CE0FFF717FE064605E000BF0D
:100DB000FFF712FE801B6428F0D828688003F7D460
:100DC0002078DFF8C89280074FF0000A44D5DBF89E
:100DD0000010584611F00C0F0FD00168C1F38101CB
:100DE000022902D13968490207D50068C0F38100A1
:100DF00003280AD13868400207D42868800715D52F
:100E0000E068012800D111E03AE1E068B0B10120CA
:100E1000C9F80000FFF7E0FD064604E0FFF7DCFD3F
:100E2000801B0228BAD828688007F7D5286821696E
:100E300020F0F80040EAC10028600DE0C9F800A0E9
:100E4000FFF7CAFD064604E0FFF7C6FD801B022837
:100E50001CD828688007F7D42078000727D5DFF84A
:100E600028828B48616908F16C0881B10121016019
:100E7000FFF7B2FD064604E0FFF7AEFD801B022837
:100E800004D8D8F800008007F6D510E089E0C0F853
:100E900000A0FFF7A1FD064605E000BFFFF79CFD9F
:100EA000801B02287DD8D8F800008007F6D420786F
:100EB000400769D574484FF0000838300068C0001A
:100EC0000BD471483830016841F0805101600068EE
:100ED0004FF0010800F0805000906E4E3068C00561
:100EE00011D4306840F480703060FFF775FD0090D9
:100EF00006E000BFFFF770FD0099401A022850D8A5
:100F00003068C005F6D5604EA068683601280FD05D
:100F10000528306810D020F001003060306820F0E3
:100F200004003060A068B8B1FFF756FD00900FE0F4
:100F3000306840F00100F4E740F004003060F7E76B
:100F4000FFF74AFD0099411A41F28830814264D886
:100F500030688007F4D50EE0FFF73EFD009007E013
:100F6000FFF73AFD0099411A41F28830814254D886
:100F700030688007F4D4B8F1000F05D0424838300B
:100F8000016821F080510160A069A8B3DBF800106E
:100F9000C1F38101022947D00228C9F860A005D019
:100FA00000E03AE0FFF718FD044639E0FFF714FDD2
:100FB000064604E0FFF710FD801B02282DD82868A4
:100FC0008001F7D4F4E907010843E168324A49088F
:100FD00002EB0141A26841EA82110843217C40EA08
:100FE0000160217D40EA017038600120C9F860008D
:100FF000FFF7F2FC044606E044E000BFFFF7ECFC1C
:10100000001B022809D828688001F7D53AE000BF04
:10101000FFF7E2FC001B022802D90320BDE8F88F8D
:1010200028688001F4D42DE00128F7D03868E269FF
:1010300000F48001914223D1226A00F03F019142E5
:101040001ED147F6C071626A0140B1EB821F17D111
:10105000A26A4FF0FF3300F4403103EB5202B1EBD0
:10106000024F0DD194F82C2000F07061B1EB026FAB
:1010700006D194F8301000F0E040B0EB017F01D0D1
:101080000120CBE70020C9E70838024000004742B2
:10109000800E4742007000400000FFFF10B5401E68
:1010A000B0F1807F01D3012010BD4FF0E0246061DA
:1010B0000F21601700F0D4FA0020A0610720206102
:1010C000002010BD70B5040004D094F83D00002548
:1010D00010B106E0012070BD84F83C50204600F0BD
:1010E00023F8242084F83D002068C16821F40051D1
:1010F000C160204600F0E8F92068016921F49041C0
:1011000001612068416921F02A0141612068C168BC
:1011100041F40051C1602564202084F83D0084F82A
:101120003E00002070BD000010B586B004461421BA
:101130006846FFF79DF814492068884221D113487A
:101140000021026842F480220260006800F48020DE
:1011500005900E481038026842F0080202600068EC
:1011600000F0080005904FF4407000900220CDE997
:101170000101032003900720049069460448FFF70B
:1011800033FB06B010BD000000480040403802406C
:10119000000C02402DE9F84F044690F83E009A46B4
:1011A00016460D46202853D1FDB1F6B194F83C0007
:1011B00001284DD0012084F83C000027276422201C
:1011C00084F83E002763FFF707FCA6858146E68585
:1011D000A0684FF48058404501D1206940B12E46A7
:1011E0005FF0000584F83C7027E00120BDE8F88F2F
:1011F0000026F7E74B46002220212046CDF800A02C
:1012000000F0E8F908B10320F0E726B1A0684045F6
:101210001BD038B108E020684068C0F3080025F80A
:10122000020B07E0206980B12068406800F07F0071
:1012300006F8010BE08D401EE085E08D0028D9D135
:10124000202084F83E000020D0E720684068EFE7C7
:101250000220CBE72DE9F843044690F83D001F46F5
:1012600016460D4620284CD1C5B1BEB194F83C00BD
:10127000012846D0012084F83C004FF00008C4F853
:101280004080212084F83D00FFF7A6FBA68481461C
:10129000E684A068B0F5805F03D004E00120BDE8DB
:1012A000F883206928B12E465FF0000584F83C8061
:1012B0000EE00026FAE78021204600F08BF9A0B965
:1012C000AEB116F8010B21684860E08C401EE08446
:1012D000E08C4B464FF0000200970028EBD14FF016
:1012E0004001204600F076F930B10320D7E735F809
:1012F000020BC0F30800E6E7202084F83D00002040
:10130000CDE70220CBE7FEE7F0B587B014216846B1
:10131000FEF7AEFF3E480024016841F00401016081
:10132000016801F004010591016841F0800101604C
:10133000016801F080010591016841F0020101603E
:10134000016801F002010591016841F008010160A6
:10135000016801F008010591016841F04001016058
:10136000016801F040010591016841F0010101604F
:101370000068284E00F0010044F28105059000222B
:1013800029463046FFF723FB234F002240213846F1
:10139000FFF71DFB4FF4005000902048CDE90104F9
:1013A00069461F48FFF720FA00950125CDE9015451
:1013B000694630460394FFF717FA40200090CDE9C4
:1013C0000154694638460394FFF70EFA8020CDE9B0
:1013D0000004694638460294FFF706FA4FF4E850D5
:1013E00000900220CDE90104032003900A200D4D56
:1013F000049069462846FFF7F7F96815CDE900041F
:10140000694628460294FFF7EFF907B0F0BD0000E7
:101410003038024000040240001802400000111061
:101420000008024000000240FEE7FEE770477047F8
:10143000FFF7D8BA10B594B034216846FEF718FF0C
:1014400014210DA8FEF714FF19480024016841F08B
:1014500080510160006800F08050129015480168CA
:1014600021F4404141F4804101600068069400F499
:101470004040129002200090012003901020049020
:101480006846FFF73FFC08B172B6FEE70F20CDE9D2
:101490000D044FF48050CDE90F4000210DA81194A8
:1014A000FFF72CFB002801D072B6FEE714B010BD88
:1014B00040380240007000400248016841F4700169
:1014C0000160704788ED00E070B50446006801696E
:1014D000E26821F44051114301612169A068E26989
:1014E00008436169114308432168CA6849F20C63E3
:1014F0009A430243CA6020684169A26921F440719D
:101500001143416131492068884202D03049884204
:1015100002D1FFF79DFB01E0FFF78AFBE2690023A0
:10152000192164253226B2F5004F626828D0A0FB4D
:101530000101930F9200FEF763FE0146B0FBF5F048
:101540006FF01802504301EB800006EB0010B0FB77
:10155000F5F000F0F002B1FBF5F002EB0012B1FB88
:10156000F5F06FF01803584301EB800006EB001014
:10157000B0FBF5F000F00F0021681044886070BDEA
:10158000A0FB010192185B41FEF73AFE0146B0FB59
:10159000F5F00201B1FBF5F06FF01803584301EBD1
:1015A000800006EBC000B0FBF5F000F0F80002EBA5
:1015B0004002B1FBF5F0584301EB800006EBC000A0
:1015C000B0FBF5F000F00700D6E700000010014086
:1015D000001401402DE9F041984617460E46044696
:1015E000069D1DE0681C1BD02DB1FFF7F5F9A0EB9F
:1015F0000800A84214D92068C16821F4D071C160E4
:101600002068416921F001014161202084F83D00FA
:1016100084F83E00002084F83C000320BDE8F081FF
:101620002068006836EA000004D00020B842D9D013
:101630000020F3E70120F9E7FEE7000037B5144684
:101640000846064B6A46214600F0ECF80446694617
:10165000002000F06AFC20463EBD00002B1F000861
:101660000907090E002804DB00F1E02080F80014CF
:10167000704700F00F0000F1E02080F8141D704763
:1016800002E008C8121F08C1002AFAD1704770474B
:10169000002001E001C1121F002AFBD170470000A9
:1016A0002DE9FF5F82B00021DDE90430020DDDF895
:1016B00040B0034318D044F61050A2F2FF32424328
:1016C0001514119801281FD0A5EB0B00401C5FEAF0
:1016D000000A4FF000064E4FDFF83891B0465046F2
:1016E00015D5CAF1000413E0119801244AA301287A
:1016F00001D16FEA0B010298119AC0E90031C0E9EB
:10170000024206B0BDE8F09FCBF10000DFE70446DF
:101710000021404A491842EB0450CDE9001012E084
:10172000E00707D032463B4640464946FEF78EFE6C
:101730008046894632463B4610461946FEF786FEED
:1017400006460F466410002CEAD1DDE90401DDE90C
:101750000023BAF1000F06DAFEF778FE42464B4648
:10176000FEF774FE05E0FEF7E3FE42464B46FEF749
:10177000DFFE04460E460022284BFEF761FF03D829
:101780004FF0FF30014607E00022254B204631464E
:10179000FEF7B5FDFEF73BFF102409E0002C0ADB45
:1017A0000A220023FEF72CFD039B30321A55641EDB
:1017B00050EA0102F2D1641C039AC4F111031444EB
:1017C000119A012A03D0012208430DD10AE00843EF
:1017D00004D000204FF0110B119072E7A3EB0B0522
:1017E0006D1E0DE05B4504DD4FF0000205F10105C3
:1017F00004E003DA4FF00002A5F10105002AECD065
:1018000002981199C0E90231C0E9004579E700006A
:10181000000014400000F03F300000000000F043E2
:101820000000E03F2DE9FF4F95B09A4688460646F6
:101830000025EEE1252877D100242746F94A012129
:10184000039400E0044316F8013F203B01FA03F043
:101850001042F7D130782A2811D06FF02F0330785A
:10186000A0F13002092A16D8039A44F0020402EBD0
:10187000820203EB42021044761C0390EFE758F813
:10188000042B0392002A03DA504244F400540390DC
:1018900044F00204761C30782E2816D116F8010F79
:1018A00044F004042A280DD06FF02F023078A0F104
:1018B0003003092B09D807EB870302EB4303C71852
:1018C000761CF3E758F8047B761C30786C280FD030
:1018D00006DC4C2817D068280DD06A2814D104E003
:1018E000742810D07A280FD10DE044F400140AE0D7
:1018F00044F4801401E044F440147278824202D12E
:1019000004F58014761C761C307866280BD013DC26
:10191000582877D009DC002875D04528F6D046280D
:10192000F4D047281AD193E118E0632835D0642811
:1019300079D0652812D18BE1702873D008DC672834
:10194000F1D069286FD06E280DD06F2806D1ACE099
:1019500073282CD0752874D0782853D05246179904
:1019600090476D1C54E1C4F30250022809D00328AB
:101970000DD0D8F8001004280DD00D6008F104082F
:1019800046E1D8F80010EA17C1E90052F6E7D8F8A6
:1019900000100D80F2E70D70F0E718F8041B8DF8C9
:1019A000001000208DF80100EB46012003E058F8FC
:1019B00004BB4FF0FF3061074FF0000102D40DE08F
:1019C00009F101018946B9420FDA8145F8DB1BF8BC
:1019D00009100029F4D108E009F10101894681428A
:1019E000FADB1BF809100029F6D103985346A0EB47
:1019F000090721463846179A00F080FA284400EB80
:101A0000090507E044E008E10DE01BF8010B524630
:101A100017999047B9F10109F7D253462146384644
:101A2000179AF2E039E00A21C4F302524FF0000B9A
:101A30000091022A06D058F8040BC117032A09D0D6
:101A40000AE023E008F1070020F00702F2E80201B3
:101A5000904605E000B2C117042A01D140B2C11777
:101A6000002906DA0A460021404261EB02012D22DC
:101A700002E0220504D52B228DF80420012203E088
:101A8000E20701D02022F7E7914657E00A2100E063
:101A900010214FF0000B00910BE010214FF0000BD4
:101AA00044F004040827009103E008204FF0000BE5
:101AB0000090C4F30252022A05D058F8040B00210A
:101AC000032A08D008E008F1070020F00702F2E836
:101AD0000201904603E080B2042A00D1C0B24FF068
:101AE000000922072AD53278702A07D0DDF800C015
:101AF0008CF0100C5CEA0B0C05D00EE040228DF847
:101B00000420012208E050EA010306D030238DF8BA
:101B100004308DF8052002229146009B83F00803D3
:101B200053EA0B030AD150EA010201D1620705D53D
:101B300030228DF804204FF001097F1E3278582A98
:101B400004D039A20C920CAA02920BE03BA2F9E756
:101B50005B46009AFEF754FB0C9B9B5C029A521E5C
:101B60000292137050EA0102F2D1029804A9081AF5
:101B700000F1200B600702D524F4803400E0012737
:101B80005F4502DDA7EB0B0000E0002000EB0B013E
:101B9000009003984944401A0390E00306D453464A
:101BA0002146179A039800F0A9F90544002706E09A
:101BB00001A85246C05D179990476D1C7F1C4F4588
:101BC000F6DBE0030CD553462146179A039800F044
:101BD00095F9054404E030205246179990476D1C52
:101BE0000099481E00900029F5DC08E0029802994F
:101BF00052460078491C0291179990476D1CBBF121
:101C00000001ABF1010BF1DC5BE100F065F905448B
:101C1000761C307800287FF40DAE19B02846BDE858
:101C2000F08F000009280100303132333435363767
:101C30003839616263646566000000003031323318
:101C400034353637383941424344454600000000B8
:101C5000600700D4062708F1070020F00700F0E82D
:101C60000223804603F0004C5FEA0C0001D097A0ED
:101C700009E0200501D596A005E0E00701D095A078
:101C800001E0AFF24C001390307823F00043652858
:101C90000CD006DC452809D046281DD047287FD126
:101CA0003BE0662818D067287AD136E00021112F52
:101CB00001DB112000E0781CCDE9000104A90CA88B
:101CC000FFF7EEFCDDE90D010C9A4FF0000B07F178
:101CD0000109109200914EE04FF000400097CDE9CD
:101CE000011004A90CA8FFF7DBFCDDE90D020C9B39
:101CF0000F994FF0000B91461093009211B9791C87
:101D000000EB0109B7EB090003D4C0F1FF3B07F179
:101D10000109A9EB0700019042E0012F00DA012739
:101D20000021112F01DD112000E03846CDE900012E
:101D300004A90CA8FFF7B4FCDDE90D010C9A009191
:101D40004FF0000BB946109221070FD4009A4A4574
:101D500003DA914601E0A9F10109B9F1010F05DDAE
:101D6000109AA9F10101515C3029F4D0B84202DA8D
:101D700010F1040F03DA0121CDE9011010E0002871
:101D800003DC8344A9EB000102E0411C494500DD6E
:101D90008946A0EB0B00401C01904FF000400290E0
:101DA000200705D40198484502DB4FF0FF30019031
:101DB00000208DF84B0002980DF14B07B0F1004F59
:101DC00025D002200C902B200D90029800280CDAD0
:101DD000404202902D200D9007E00A210298FEF764
:101DE00059FA3031029007F8011D0C99481E0C90E9
:101DF0000029F2DC02980028EFD1791E0D980870B6
:101E0000307800F0200040F0450007F8020D11A8DE
:101E1000C01BC01D02901398007800B1012000EB98
:101E20000901019801EBE071029801440398401AFE
:101E3000401E0390E00306D453462146179A0398A8
:101E400000F05CF805441398007818B152461799D1
:101E500090476D1CE00323D553462146179A0398FB
:101E600000F04CF805441BE0BBF1000F07DB0098C5
:101E7000584504DD1098179910F80B0001E01799E8
:101E800030205246904701980BF1010B401E05F19E
:101E90000105019004D12E205246179990476D1CE0
:101EA000B9F10001A9F10109DEDC05E017F8010B29
:101EB0005246179990476D1C0299481E02900029BE
:101EC000F4DC53462146179A03989EE62D00000045
:101ED0002B000000200000002DE9F0410446002501
:101EE0001E461746880404D405E039462020B04732
:101EF0006D1C641EF9D52846BDE8F0812DE9F0413E
:101F0000044600251E469046C80301D5302700E050
:101F10002027880404D505E041463846B0476D1CAB
:101F2000641EF9D52846BDE8F0810A68531C0B6091
:101F30001070704738B5044612A000F0C5F921783A
:101F4000491C6018091F50F8042C204600F018F9AD
:101F500028B117A000F0B8F900F0B2F838BD1CA005
:101F600000F0B2F92078012100F09AF810218DF8E4
:101F700000100A461FA000F0A7F90121684600F0F2
:101F8000F5F838BD424C5F44454255475F4D5347D5
:101F90003A626F6F746C6F616465725F68616E64E2
:101FA0006C655F6765747665725F636D640A0000D7
:101FB000424C5F44454255475F4D53473A6368651D
:101FC000636B73756D206661696C2021210A0000C6
:101FD000424C5F44454255475F4D53473A636865FD
:101FE000636B73756D207375636365737320212153
:101FF0000A000000424C5F44454255475F4D53473D
:102000003A424C5F564552203A20256420252378D9
:102010000A00000070B50AA000F056F9124D2C68B5
:1020200012A0214600F050F984F308886C6814A0CF
:10203000214600F049F9A446BDE870406047000021
:10204000496E7369646520626F6F746C6F6164655B
:10205000725F6A756D705F746F5F757365725F61D3
:1020600070700D0A00000000008000084D535020E1
:1020700076616C7565203A202523785D0D0A000095
:102080006170702072657365742068616E646C6540
:10209000722061646472203A202523780D0A0000C2
:1020A00008B5A5208DF800008DF801104FF0FF3322
:1020B000022269460148FFF7CDF808BD180000204C
:1020C00008B57F208DF800004FF0FF3301226946EC
:1020D0000148FFF7BFF808BD18000020144C4FF06E
:1020E000FF35C8211248FEF7C3F811492B460122DB
:1020F000A1F14400FFF74EF80D4822782B46611CF1
:102100004438FFF747F8607851380C280CD2DFE8E4
:1021100000F0070606060606060606060606E0E7BF
:102120000348FFF707FFDCE702A000F0CDF8D8E78F
:102130005C000020424C5F44454255475F4D534789
:102140003A496E76616C696420636F6D6D616E648F
:1021500020636F64652072656365697665642066D7
:10216000726F6D20686F7374200A00008AB2014696
:102170004FF0FF330148FFF76DB800001800002052
:10218000F8B50746FF2016460D46002407E0385DE7
:102190000090012269460948FEF7EEFA641CAC4241
:1021A000F5D3064909688A6842F001028A60B042A4
:1021B00001D10020F8BD0120F8BD00000000002082
:1021C00010B5FEF717FCFFF735F9FFF79DF81A4930
:1021D000184808600846FEF7E2FA08B172B6FEE752
:1021E000174816490C2201604FF4E131416000218B
:1021F0008160C160C0E904128161C161FEF762FFC4
:1022000008B172B6FEE70FA000F05EF84FF400517F
:102210001648FEF7D7FB012806D015A000F054F8A9
:10222000FFF7F8FE002010BD1DA000F04DF8FFF7ED
:1022300055FF000000300240000000200048004030
:102240001800002052756E6E696E6720626F6F74A1
:10225000206C6F616465722070726F6772616D2EA1
:102260002E2E2E2E2E2E0D0A0000000000080240F9
:10227000427574746F6E206973206E6F7420707273
:102280006573736564202E2E2065786563757469A7
:102290006E672075736572206170700D0A00000012
:1022A000427574746F6E2069732070726573736504
:1022B00064202E2E20676F696E6720746F20424C59
:1022C000206D6F64650D0A000FB400B595B017AAB4
:1022D00068461699FFF7B2F96846FDF7D4FF82B257
:1022E0004FF0FF3369460348FEF7B4FF15B05DF8C1
:1022F00014FB000018000020000000000000000097
:10230000010203040607080900000000010203049B
:10231000302300080000002018000000801600088C
:10232000482300081800002010050000901600083F
:10233000000000000000000001000000100000008C
:08234000000000000024F4007D
:04000005080001C529
:00000001FF
